{
  "_format": "hh-sol-artifact-1",
  "contractName": "Create",
  "sourceName": "contracts/VotingContract.sol",
  "abi": [
    {
      "inputs": [],
      "stateMutability": "nonpayable",
      "type": "constructor"
    },
    {
      "anonymous": false,
      "inputs": [
        {
          "indexed": true,
          "internalType": "uint256",
          "name": "candidateID",
          "type": "uint256"
        },
        {
          "indexed": false,
          "internalType": "string",
          "name": "age",
          "type": "string"
        },
        {
          "indexed": false,
          "internalType": "string",
          "name": "name",
          "type": "string"
        },
        {
          "indexed": false,
          "internalType": "string",
          "name": "image",
          "type": "string"
        },
        {
          "indexed": false,
          "internalType": "uint256",
          "name": "voteCount",
          "type": "uint256"
        },
        {
          "indexed": false,
          "internalType": "address",
          "name": "_address",
          "type": "address"
        },
        {
          "indexed": false,
          "internalType": "string",
          "name": "ipfs",
          "type": "string"
        }
      ],
      "name": "CandidateEvent",
      "type": "event"
    },
    {
      "anonymous": false,
      "inputs": [
        {
          "indexed": true,
          "internalType": "uint256",
          "name": "voter_voterID",
          "type": "uint256"
        },
        {
          "indexed": false,
          "internalType": "string",
          "name": "voter_name",
          "type": "string"
        },
        {
          "indexed": false,
          "internalType": "string",
          "name": "voter_image",
          "type": "string"
        },
        {
          "indexed": false,
          "internalType": "address",
          "name": "voter_address",
          "type": "address"
        },
        {
          "indexed": false,
          "internalType": "uint256",
          "name": "voter_allowed",
          "type": "uint256"
        },
        {
          "indexed": false,
          "internalType": "bool",
          "name": "voter_voted",
          "type": "bool"
        },
        {
          "indexed": false,
          "internalType": "uint256",
          "name": "voter_vote",
          "type": "uint256"
        },
        {
          "indexed": false,
          "internalType": "string",
          "name": "voter_ipfs",
          "type": "string"
        }
      ],
      "name": "VoterCreated",
      "type": "event"
    },
    {
      "inputs": [],
      "name": "_candidateID",
      "outputs": [
        {
          "internalType": "uint256",
          "name": "_value",
          "type": "uint256"
        }
      ],
      "stateMutability": "view",
      "type": "function"
    },
    {
      "inputs": [],
      "name": "_voterID",
      "outputs": [
        {
          "internalType": "uint256",
          "name": "_value",
          "type": "uint256"
        }
      ],
      "stateMutability": "view",
      "type": "function"
    },
    {
      "inputs": [
        {
          "internalType": "uint256",
          "name": "",
          "type": "uint256"
        }
      ],
      "name": "candidateAddress",
      "outputs": [
        {
          "internalType": "address",
          "name": "",
          "type": "address"
        }
      ],
      "stateMutability": "view",
      "type": "function"
    },
    {
      "inputs": [
        {
          "internalType": "address",
          "name": "",
          "type": "address"
        }
      ],
      "name": "candidates",
      "outputs": [
        {
          "internalType": "uint256",
          "name": "candidateID",
          "type": "uint256"
        },
        {
          "internalType": "string",
          "name": "age",
          "type": "string"
        },
        {
          "internalType": "string",
          "name": "name",
          "type": "string"
        },
        {
          "internalType": "string",
          "name": "image",
          "type": "string"
        },
        {
          "internalType": "uint256",
          "name": "voteCount",
          "type": "uint256"
        },
        {
          "internalType": "address",
          "name": "_address",
          "type": "address"
        },
        {
          "internalType": "string",
          "name": "ipfs",
          "type": "string"
        }
      ],
      "stateMutability": "view",
      "type": "function"
    },
    {
      "inputs": [],
      "name": "declareWinner",
      "outputs": [
        {
          "internalType": "address",
          "name": "winnerAddress",
          "type": "address"
        },
        {
          "internalType": "uint256",
          "name": "highestVotes",
          "type": "uint256"
        }
      ],
      "stateMutability": "view",
      "type": "function"
    },
    {
      "inputs": [],
      "name": "getCandidate",
      "outputs": [
        {
          "internalType": "address[]",
          "name": "",
          "type": "address[]"
        }
      ],
      "stateMutability": "view",
      "type": "function"
    },
    {
      "inputs": [],
      "name": "getCandidateLength",
      "outputs": [
        {
          "internalType": "uint256",
          "name": "",
          "type": "uint256"
        }
      ],
      "stateMutability": "view",
      "type": "function"
    },
    {
      "inputs": [
        {
          "internalType": "address",
          "name": "_address",
          "type": "address"
        }
      ],
      "name": "getCandidatedata",
      "outputs": [
        {
          "internalType": "string",
          "name": "",
          "type": "string"
        },
        {
          "internalType": "string",
          "name": "",
          "type": "string"
        },
        {
          "internalType": "uint256",
          "name": "",
          "type": "uint256"
        },
        {
          "internalType": "string",
          "name": "",
          "type": "string"
        },
        {
          "internalType": "uint256",
          "name": "",
          "type": "uint256"
        },
        {
          "internalType": "string",
          "name": "",
          "type": "string"
        },
        {
          "internalType": "address",
          "name": "",
          "type": "address"
        }
      ],
      "stateMutability": "view",
      "type": "function"
    },
    {
      "inputs": [],
      "name": "getVotedVoterList",
      "outputs": [
        {
          "internalType": "address[]",
          "name": "",
          "type": "address[]"
        }
      ],
      "stateMutability": "view",
      "type": "function"
    },
    {
      "inputs": [],
      "name": "getVoterLength",
      "outputs": [
        {
          "internalType": "uint256",
          "name": "",
          "type": "uint256"
        }
      ],
      "stateMutability": "view",
      "type": "function"
    },
    {
      "inputs": [],
      "name": "getVoterList",
      "outputs": [
        {
          "internalType": "address[]",
          "name": "",
          "type": "address[]"
        }
      ],
      "stateMutability": "view",
      "type": "function"
    },
    {
      "inputs": [
        {
          "internalType": "address",
          "name": "_address",
          "type": "address"
        }
      ],
      "name": "getVoterdata",
      "outputs": [
        {
          "internalType": "uint256",
          "name": "",
          "type": "uint256"
        },
        {
          "internalType": "string",
          "name": "",
          "type": "string"
        },
        {
          "internalType": "string",
          "name": "",
          "type": "string"
        },
        {
          "internalType": "address",
          "name": "",
          "type": "address"
        },
        {
          "internalType": "string",
          "name": "",
          "type": "string"
        },
        {
          "internalType": "uint256",
          "name": "",
          "type": "uint256"
        },
        {
          "internalType": "bool",
          "name": "",
          "type": "bool"
        }
      ],
      "stateMutability": "view",
      "type": "function"
    },
    {
      "inputs": [
        {
          "internalType": "address",
          "name": "_address",
          "type": "address"
        },
        {
          "internalType": "string",
          "name": "_age",
          "type": "string"
        },
        {
          "internalType": "string",
          "name": "_name",
          "type": "string"
        },
        {
          "internalType": "string",
          "name": "_image",
          "type": "string"
        },
        {
          "internalType": "string",
          "name": "_ipfs",
          "type": "string"
        }
      ],
      "name": "setCandidate",
      "outputs": [],
      "stateMutability": "nonpayable",
      "type": "function"
    },
    {
      "inputs": [
        {
          "internalType": "address",
          "name": "_candidateAddress",
          "type": "address"
        },
        {
          "internalType": "uint256",
          "name": "_candidateVoteId",
          "type": "uint256"
        }
      ],
      "name": "vote",
      "outputs": [],
      "stateMutability": "nonpayable",
      "type": "function"
    },
    {
      "inputs": [
        {
          "internalType": "uint256",
          "name": "",
          "type": "uint256"
        }
      ],
      "name": "votedVoters",
      "outputs": [
        {
          "internalType": "address",
          "name": "",
          "type": "address"
        }
      ],
      "stateMutability": "view",
      "type": "function"
    },
    {
      "inputs": [
        {
          "internalType": "uint256",
          "name": "",
          "type": "uint256"
        }
      ],
      "name": "voterAddress",
      "outputs": [
        {
          "internalType": "address",
          "name": "",
          "type": "address"
        }
      ],
      "stateMutability": "view",
      "type": "function"
    },
    {
      "inputs": [
        {
          "internalType": "address",
          "name": "_address",
          "type": "address"
        },
        {
          "internalType": "string",
          "name": "_name",
          "type": "string"
        },
        {
          "internalType": "string",
          "name": "_image",
          "type": "string"
        },
        {
          "internalType": "string",
          "name": "_ipfs",
          "type": "string"
        }
      ],
      "name": "voterRight",
      "outputs": [],
      "stateMutability": "nonpayable",
      "type": "function"
    },
    {
      "inputs": [
        {
          "internalType": "address",
          "name": "",
          "type": "address"
        }
      ],
      "name": "voters",
      "outputs": [
        {
          "internalType": "uint256",
          "name": "voter_voterID",
          "type": "uint256"
        },
        {
          "internalType": "string",
          "name": "voter_name",
          "type": "string"
        },
        {
          "internalType": "string",
          "name": "voter_image",
          "type": "string"
        },
        {
          "internalType": "address",
          "name": "voter_address",
          "type": "address"
        },
        {
          "internalType": "uint256",
          "name": "voter_allowed",
          "type": "uint256"
        },
        {
          "internalType": "bool",
          "name": "voter_voted",
          "type": "bool"
        },
        {
          "internalType": "uint256",
          "name": "voter_vote",
          "type": "uint256"
        },
        {
          "internalType": "string",
          "name": "voter_ipfs",
          "type": "string"
        }
      ],
      "stateMutability": "view",
      "type": "function"
    },
    {
      "inputs": [],
      "name": "votingOrganizer",
      "outputs": [
        {
          "internalType": "address",
          "name": "",
          "type": "address"
        }
      ],
      "stateMutability": "view",
      "type": "function"
    }
  ],
  "bytecode": "0x608060405234801561001057600080fd5b5033600260006101000a81548173ffffffffffffffffffffffffffffffffffffffff021916908373ffffffffffffffffffffffffffffffffffffffff160217905550612ae8806100616000396000f3fe608060405234801561001057600080fd5b50600436106101215760003560e01c80637831ffb3116100ad578063b404031311610071578063b40403131461032e578063b63c82ca1461034c578063c5036fd414610382578063c91ec712146103b8578063f7522a83146103d457610121565b80637831ffb3146102555780638ab66a90146102855780638e945685146102bb578063a3ec138d146102d9578063b28d92ae1461031057610121565b80635cc48aa7116100f45780635cc48aa7146101af5780635d55f2de146101cd5780635f74bbde146101fd57806364f1832e1461021957806370218b851461023757610121565b80630361419e1461012657806305ad45a41461014257806314034bd2146101605780633a88251a1461017f575b600080fd5b610140600480360381019061013b9190611edc565b6103f2565b005b61014a61073f565b6040516101579190611fb0565b60405180910390f35b61016861074c565b604051610176929190611fda565b60405180910390f35b6101996004803603810190610194919061202f565b61081d565b6040516101a6919061205c565b60405180910390f35b6101b761085c565b6040516101c4919061205c565b60405180910390f35b6101e760048036038101906101e2919061202f565b610882565b6040516101f4919061205c565b60405180910390f35b61021760048036038101906102129190612077565b6108c1565b005b610221610a89565b60405161022e9190611fb0565b60405180910390f35b61023f610a95565b60405161024c9190612175565b60405180910390f35b61026f600480360381019061026a919061202f565b610b23565b60405161027c919061205c565b60405180910390f35b61029f600480360381019061029a9190612197565b610b62565b6040516102b2979695949392919061224c565b60405180910390f35b6102c3610de4565b6040516102d09190612175565b60405180910390f35b6102f360048036038101906102ee9190612197565b610e72565b6040516103079897969594939291906122f2565b60405180910390f35b61031861107f565b6040516103259190612175565b60405180910390f35b61033661110d565b6040516103439190611fb0565b60405180910390f35b61036660048036038101906103619190612197565b611119565b6040516103799796959493929190612385565b60405180910390f35b61039c60048036038101906103979190612197565b611560565b6040516103af9796959493929190612410565b60405180910390f35b6103d260048036038101906103cd9190612494565b611928565b005b6103dc611c50565b6040516103e99190611fb0565b60405180910390f35b3373ffffffffffffffffffffffffffffffffffffffff16600260009054906101000a900473ffffffffffffffffffffffffffffffffffffffff1673ffffffffffffffffffffffffffffffffffffffff1614610482576040517f08c379a0000000000000000000000000000000000000000000000000000000008152600401610479906125f1565b60405180910390fd5b600073ffffffffffffffffffffffffffffffffffffffff16600560008673ffffffffffffffffffffffffffffffffffffffff1673ffffffffffffffffffffffffffffffffffffffff16815260200190815260200160002060030160009054906101000a900473ffffffffffffffffffffffffffffffffffffffff1673ffffffffffffffffffffffffffffffffffffffff1614610553576040517f08c379a000000000000000000000000000000000000000000000000000000000815260040161054a9061265d565b60405180910390fd5b61055d6000611c5d565b60006105696000611c73565b90506000600560008773ffffffffffffffffffffffffffffffffffffffff1673ffffffffffffffffffffffffffffffffffffffff168152602001908152602001600020905060018160040181905550848160010190805190602001906105d0929190611c81565b50838160020190805190602001906105e9929190611c81565b50858160030160006101000a81548173ffffffffffffffffffffffffffffffffffffffff021916908373ffffffffffffffffffffffffffffffffffffffff1602179055508181600001819055506103e8816006018190555060008160050160006101000a81548160ff02191690831515021790555082816007019080519060200190610676929190611c81565b506006869080600181540180825580915050600190039060005260206000200160009091909190916101000a81548173ffffffffffffffffffffffffffffffffffffffff021916908373ffffffffffffffffffffffffffffffffffffffff160217905550817ff5f39971dd62d9929e3a9feaa6bb77fe7c7da0001babff8a65a7e51ad0201c1986868985600401548660050160009054906101000a900460ff1687600601548a60405161072f979695949392919061267d565b60405180910390a2505050505050565b6000600680549050905090565b60008060008060005b6003805490508110156108105760006003828154811061077857610777612701565b5b9060005260206000200160009054906101000a900473ffffffffffffffffffffffffffffffffffffffff1690506000600460008373ffffffffffffffffffffffffffffffffffffffff1673ffffffffffffffffffffffffffffffffffffffff168152602001908152602001600020600401549050848111156107fb578094508193505b505080806108089061275f565b915050610755565b5080829350935050509091565b6003818154811061082d57600080fd5b906000526020600020016000915054906101000a900473ffffffffffffffffffffffffffffffffffffffff1681565b600260009054906101000a900473ffffffffffffffffffffffffffffffffffffffff1681565b6006818154811061089257600080fd5b906000526020600020016000915054906101000a900473ffffffffffffffffffffffffffffffffffffffff1681565b6000600560003373ffffffffffffffffffffffffffffffffffffffff1673ffffffffffffffffffffffffffffffffffffffff16815260200190815260200160002090508060050160009054906101000a900460ff1615610956576040517f08c379a000000000000000000000000000000000000000000000000000000000815260040161094d906127f4565b60405180910390fd5b60008160040154141561099e576040517f08c379a000000000000000000000000000000000000000000000000000000000815260040161099590612860565b60405180910390fd5b60018160050160006101000a81548160ff0219169083151502179055508181600601819055506007339080600181540180825580915050600190039060005260206000200160009091909190916101000a81548173ffffffffffffffffffffffffffffffffffffffff021916908373ffffffffffffffffffffffffffffffffffffffff1602179055508060040154600460008573ffffffffffffffffffffffffffffffffffffffff1673ffffffffffffffffffffffffffffffffffffffff1681526020019081526020016000206004016000828254610a7d9190612880565b92505081905550505050565b60018060000154905081565b60606003805480602002602001604051908101604052809291908181526020018280548015610b1957602002820191906000526020600020905b8160009054906101000a900473ffffffffffffffffffffffffffffffffffffffff1673ffffffffffffffffffffffffffffffffffffffff1681526020019060010190808311610acf575b5050505050905090565b60078181548110610b3357600080fd5b906000526020600020016000915054906101000a900473ffffffffffffffffffffffffffffffffffffffff1681565b6004602052806000526040600020600091509050806000015490806001018054610b8b90612905565b80601f0160208091040260200160405190810160405280929190818152602001828054610bb790612905565b8015610c045780601f10610bd957610100808354040283529160200191610c04565b820191906000526020600020905b815481529060010190602001808311610be757829003601f168201915b505050505090806002018054610c1990612905565b80601f0160208091040260200160405190810160405280929190818152602001828054610c4590612905565b8015610c925780601f10610c6757610100808354040283529160200191610c92565b820191906000526020600020905b815481529060010190602001808311610c7557829003601f168201915b505050505090806003018054610ca790612905565b80601f0160208091040260200160405190810160405280929190818152602001828054610cd390612905565b8015610d205780601f10610cf557610100808354040283529160200191610d20565b820191906000526020600020905b815481529060010190602001808311610d0357829003601f168201915b5050505050908060040154908060050160009054906101000a900473ffffffffffffffffffffffffffffffffffffffff1690806006018054610d6190612905565b80601f0160208091040260200160405190810160405280929190818152602001828054610d8d90612905565b8015610dda5780601f10610daf57610100808354040283529160200191610dda565b820191906000526020600020905b815481529060010190602001808311610dbd57829003601f168201915b5050505050905087565b60606007805480602002602001604051908101604052809291908181526020018280548015610e6857602002820191906000526020600020905b8160009054906101000a900473ffffffffffffffffffffffffffffffffffffffff1673ffffffffffffffffffffffffffffffffffffffff1681526020019060010190808311610e1e575b5050505050905090565b6005602052806000526040600020600091509050806000015490806001018054610e9b90612905565b80601f0160208091040260200160405190810160405280929190818152602001828054610ec790612905565b8015610f145780601f10610ee957610100808354040283529160200191610f14565b820191906000526020600020905b815481529060010190602001808311610ef757829003601f168201915b505050505090806002018054610f2990612905565b80601f0160208091040260200160405190810160405280929190818152602001828054610f5590612905565b8015610fa25780601f10610f7757610100808354040283529160200191610fa2565b820191906000526020600020905b815481529060010190602001808311610f8557829003601f168201915b5050505050908060030160009054906101000a900473ffffffffffffffffffffffffffffffffffffffff16908060040154908060050160009054906101000a900460ff1690806006015490806007018054610ffc90612905565b80601f016020809104026020016040519081016040528092919081815260200182805461102890612905565b80156110755780601f1061104a57610100808354040283529160200191611075565b820191906000526020600020905b81548152906001019060200180831161105857829003601f168201915b5050505050905088565b6060600680548060200260200160405190810160405280929190818152602001828054801561110357602002820191906000526020600020905b8160009054906101000a900473ffffffffffffffffffffffffffffffffffffffff1673ffffffffffffffffffffffffffffffffffffffff16815260200190600101908083116110b9575b5050505050905090565b60008060000154905081565b60608060006060600060606000600460008973ffffffffffffffffffffffffffffffffffffffff1673ffffffffffffffffffffffffffffffffffffffff168152602001908152602001600020600101600460008a73ffffffffffffffffffffffffffffffffffffffff1673ffffffffffffffffffffffffffffffffffffffff168152602001908152602001600020600201600460008b73ffffffffffffffffffffffffffffffffffffffff1673ffffffffffffffffffffffffffffffffffffffff16815260200190815260200160002060000154600460008c73ffffffffffffffffffffffffffffffffffffffff1673ffffffffffffffffffffffffffffffffffffffff168152602001908152602001600020600301600460008d73ffffffffffffffffffffffffffffffffffffffff1673ffffffffffffffffffffffffffffffffffffffff16815260200190815260200160002060040154600460008e73ffffffffffffffffffffffffffffffffffffffff1673ffffffffffffffffffffffffffffffffffffffff168152602001908152602001600020600601600460008f73ffffffffffffffffffffffffffffffffffffffff1673ffffffffffffffffffffffffffffffffffffffff16815260200190815260200160002060050160009054906101000a900473ffffffffffffffffffffffffffffffffffffffff1686805461132390612905565b80601f016020809104026020016040519081016040528092919081815260200182805461134f90612905565b801561139c5780601f106113715761010080835404028352916020019161139c565b820191906000526020600020905b81548152906001019060200180831161137f57829003601f168201915b505050505096508580546113af90612905565b80601f01602080910402602001604051908101604052809291908181526020018280546113db90612905565b80156114285780601f106113fd57610100808354040283529160200191611428565b820191906000526020600020905b81548152906001019060200180831161140b57829003601f168201915b5050505050955083805461143b90612905565b80601f016020809104026020016040519081016040528092919081815260200182805461146790612905565b80156114b45780601f10611489576101008083540402835291602001916114b4565b820191906000526020600020905b81548152906001019060200180831161149757829003601f168201915b505050505093508180546114c790612905565b80601f01602080910402602001604051908101604052809291908181526020018280546114f390612905565b80156115405780601f1061151557610100808354040283529160200191611540565b820191906000526020600020905b81548152906001019060200180831161152357829003601f168201915b505050505091509650965096509650965096509650919395979092949650565b600060608060006060600080600560008973ffffffffffffffffffffffffffffffffffffffff1673ffffffffffffffffffffffffffffffffffffffff16815260200190815260200160002060000154600560008a73ffffffffffffffffffffffffffffffffffffffff1673ffffffffffffffffffffffffffffffffffffffff168152602001908152602001600020600101600560008b73ffffffffffffffffffffffffffffffffffffffff1673ffffffffffffffffffffffffffffffffffffffff168152602001908152602001600020600201600560008c73ffffffffffffffffffffffffffffffffffffffff1673ffffffffffffffffffffffffffffffffffffffff16815260200190815260200160002060030160009054906101000a900473ffffffffffffffffffffffffffffffffffffffff16600560008d73ffffffffffffffffffffffffffffffffffffffff1673ffffffffffffffffffffffffffffffffffffffff168152602001908152602001600020600701600560008e73ffffffffffffffffffffffffffffffffffffffff1673ffffffffffffffffffffffffffffffffffffffff16815260200190815260200160002060040154600560008f73ffffffffffffffffffffffffffffffffffffffff1673ffffffffffffffffffffffffffffffffffffffff16815260200190815260200160002060050160009054906101000a900460ff1685805461177790612905565b80601f01602080910402602001604051908101604052809291908181526020018280546117a390612905565b80156117f05780601f106117c5576101008083540402835291602001916117f0565b820191906000526020600020905b8154815290600101906020018083116117d357829003601f168201915b5050505050955084805461180390612905565b80601f016020809104026020016040519081016040528092919081815260200182805461182f90612905565b801561187c5780601f106118515761010080835404028352916020019161187c565b820191906000526020600020905b81548152906001019060200180831161185f57829003601f168201915b5050505050945082805461188f90612905565b80601f01602080910402602001604051908101604052809291908181526020018280546118bb90612905565b80156119085780601f106118dd57610100808354040283529160200191611908565b820191906000526020600020905b8154815290600101906020018083116118eb57829003601f168201915b505050505092509650965096509650965096509650919395979092949650565b3373ffffffffffffffffffffffffffffffffffffffff16600260009054906101000a900473ffffffffffffffffffffffffffffffffffffffff1673ffffffffffffffffffffffffffffffffffffffff16146119b8576040517f08c379a00000000000000000000000000000000000000000000000000000000081526004016119af906129a9565b60405180910390fd5b600073ffffffffffffffffffffffffffffffffffffffff16600460008773ffffffffffffffffffffffffffffffffffffffff1673ffffffffffffffffffffffffffffffffffffffff16815260200190815260200160002060050160009054906101000a900473ffffffffffffffffffffffffffffffffffffffff1673ffffffffffffffffffffffffffffffffffffffff1614611a89576040517f08c379a0000000000000000000000000000000000000000000000000000000008152600401611a8090612a15565b60405180910390fd5b611a936001611c5d565b6000611a9f6001611c73565b90506000600460008873ffffffffffffffffffffffffffffffffffffffff1673ffffffffffffffffffffffffffffffffffffffff168152602001908152602001600020905085816001019080519060200190611afc929190611c81565b5084816002019080519060200190611b15929190611c81565b5081816000018190555083816003019080519060200190611b37929190611c81565b506000816004018190555082816006019080519060200190611b5a929190611c81565b50868160050160006101000a81548173ffffffffffffffffffffffffffffffffffffffff021916908373ffffffffffffffffffffffffffffffffffffffff1602179055506003879080600181540180825580915050600190039060005260206000200160009091909190916101000a81548173ffffffffffffffffffffffffffffffffffffffff021916908373ffffffffffffffffffffffffffffffffffffffff160217905550817f77ac25f44e0fef43a1507ec81a076f9486c5b8240e8ad7aac0359f124342b42587878785600401548c89604051611c3f96959493929190612a35565b60405180910390a250505050505050565b6000600380549050905090565b6001816000016000828254019250508190555050565b600081600001549050919050565b828054611c8d90612905565b90600052602060002090601f016020900481019282611caf5760008555611cf6565b82601f10611cc857805160ff1916838001178555611cf6565b82800160010185558215611cf6579182015b82811115611cf5578251825591602001919060010190611cda565b5b509050611d039190611d07565b5090565b5b80821115611d20576000816000905550600101611d08565b5090565b6000604051905090565b600080fd5b600080fd5b600073ffffffffffffffffffffffffffffffffffffffff82169050919050565b6000611d6382611d38565b9050919050565b611d7381611d58565b8114611d7e57600080fd5b50565b600081359050611d9081611d6a565b92915050565b600080fd5b600080fd5b6000601f19601f8301169050919050565b7f4e487b7100000000000000000000000000000000000000000000000000000000600052604160045260246000fd5b611de982611da0565b810181811067ffffffffffffffff82111715611e0857611e07611db1565b5b80604052505050565b6000611e1b611d24565b9050611e278282611de0565b919050565b600067ffffffffffffffff821115611e4757611e46611db1565b5b611e5082611da0565b9050602081019050919050565b82818337600083830152505050565b6000611e7f611e7a84611e2c565b611e11565b905082815260208101848484011115611e9b57611e9a611d9b565b5b611ea6848285611e5d565b509392505050565b600082601f830112611ec357611ec2611d96565b5b8135611ed3848260208601611e6c565b91505092915050565b60008060008060808587031215611ef657611ef5611d2e565b5b6000611f0487828801611d81565b945050602085013567ffffffffffffffff811115611f2557611f24611d33565b5b611f3187828801611eae565b935050604085013567ffffffffffffffff811115611f5257611f51611d33565b5b611f5e87828801611eae565b925050606085013567ffffffffffffffff811115611f7f57611f7e611d33565b5b611f8b87828801611eae565b91505092959194509250565b6000819050919050565b611faa81611f97565b82525050565b6000602082019050611fc56000830184611fa1565b92915050565b611fd481611d58565b82525050565b6000604082019050611fef6000830185611fcb565b611ffc6020830184611fa1565b9392505050565b61200c81611f97565b811461201757600080fd5b50565b60008135905061202981612003565b92915050565b60006020828403121561204557612044611d2e565b5b60006120538482850161201a565b91505092915050565b60006020820190506120716000830184611fcb565b92915050565b6000806040838503121561208e5761208d611d2e565b5b600061209c85828601611d81565b92505060206120ad8582860161201a565b9150509250929050565b600081519050919050565b600082825260208201905092915050565b6000819050602082019050919050565b6120ec81611d58565b82525050565b60006120fe83836120e3565b60208301905092915050565b6000602082019050919050565b6000612122826120b7565b61212c81856120c2565b9350612137836120d3565b8060005b8381101561216857815161214f88826120f2565b975061215a8361210a565b92505060018101905061213b565b5085935050505092915050565b6000602082019050818103600083015261218f8184612117565b905092915050565b6000602082840312156121ad576121ac611d2e565b5b60006121bb84828501611d81565b91505092915050565b600081519050919050565b600082825260208201905092915050565b60005b838110156121fe5780820151818401526020810190506121e3565b8381111561220d576000848401525b50505050565b600061221e826121c4565b61222881856121cf565b93506122388185602086016121e0565b61224181611da0565b840191505092915050565b600060e082019050612261600083018a611fa1565b81810360208301526122738189612213565b905081810360408301526122878188612213565b9050818103606083015261229b8187612213565b90506122aa6080830186611fa1565b6122b760a0830185611fcb565b81810360c08301526122c98184612213565b905098975050505050505050565b60008115159050919050565b6122ec816122d7565b82525050565b600061010082019050612308600083018b611fa1565b818103602083015261231a818a612213565b9050818103604083015261232e8189612213565b905061233d6060830188611fcb565b61234a6080830187611fa1565b61235760a08301866122e3565b61236460c0830185611fa1565b81810360e08301526123768184612213565b90509998505050505050505050565b600060e082019050818103600083015261239f818a612213565b905081810360208301526123b38189612213565b90506123c26040830188611fa1565b81810360608301526123d48187612213565b90506123e36080830186611fa1565b81810360a08301526123f58185612213565b905061240460c0830184611fcb565b98975050505050505050565b600060e082019050612425600083018a611fa1565b81810360208301526124378189612213565b9050818103604083015261244b8188612213565b905061245a6060830187611fcb565b818103608083015261246c8186612213565b905061247b60a0830185611fa1565b61248860c08301846122e3565b98975050505050505050565b600080600080600060a086880312156124b0576124af611d2e565b5b60006124be88828901611d81565b955050602086013567ffffffffffffffff8111156124df576124de611d33565b5b6124eb88828901611eae565b945050604086013567ffffffffffffffff81111561250c5761250b611d33565b5b61251888828901611eae565b935050606086013567ffffffffffffffff81111561253957612538611d33565b5b61254588828901611eae565b925050608086013567ffffffffffffffff81111561256657612565611d33565b5b61257288828901611eae565b9150509295509295909350565b7f4f6e6c79206f7267616e697a65722063616e2063726561746520766f7465722060008201527f6e6f7420796f7500000000000000000000000000000000000000000000000000602082015250565b60006125db6027836121cf565b91506125e68261257f565b604082019050919050565b6000602082019050818103600083015261260a816125ce565b9050919050565b7f566f74657220616c726561647920657869737473000000000000000000000000600082015250565b60006126476014836121cf565b915061265282612611565b602082019050919050565b600060208201905081810360008301526126768161263a565b9050919050565b600060e0820190508181036000830152612697818a612213565b905081810360208301526126ab8189612213565b90506126ba6040830188611fcb565b6126c76060830187611fa1565b6126d460808301866122e3565b6126e160a0830185611fa1565b81810360c08301526126f38184612213565b905098975050505050505050565b7f4e487b7100000000000000000000000000000000000000000000000000000000600052603260045260246000fd5b7f4e487b7100000000000000000000000000000000000000000000000000000000600052601160045260246000fd5b600061276a82611f97565b91507fffffffffffffffffffffffffffffffffffffffffffffffffffffffffffffffff82141561279d5761279c612730565b5b600182019050919050565b7f596f75206861766520616c726561647920766f74656400000000000000000000600082015250565b60006127de6016836121cf565b91506127e9826127a8565b602082019050919050565b6000602082019050818103600083015261280d816127d1565b9050919050565b7f596f752068617665206e6f2072696768747320746f20766f7465000000000000600082015250565b600061284a601a836121cf565b915061285582612814565b602082019050919050565b600060208201905081810360008301526128798161283d565b9050919050565b600061288b82611f97565b915061289683611f97565b9250827fffffffffffffffffffffffffffffffffffffffffffffffffffffffffffffffff038211156128cb576128ca612730565b5b828201905092915050565b7f4e487b7100000000000000000000000000000000000000000000000000000000600052602260045260246000fd5b6000600282049050600182168061291d57607f821691505b60208210811415612931576129306128d6565b5b50919050565b7f4f6e6c79204f7267616e697a65722063616e206372656174652043616e64696460008201527f6174650000000000000000000000000000000000000000000000000000000000602082015250565b60006129936023836121cf565b915061299e82612937565b604082019050919050565b600060208201905081810360008301526129c281612986565b9050919050565b7f43616e64696461746520616c7265616479206578697374730000000000000000600082015250565b60006129ff6018836121cf565b9150612a0a826129c9565b602082019050919050565b60006020820190508181036000830152612a2e816129f2565b9050919050565b600060c0820190508181036000830152612a4f8189612213565b90508181036020830152612a638188612213565b90508181036040830152612a778187612213565b9050612a866060830186611fa1565b612a936080830185611fcb565b81810360a0830152612aa58184612213565b905097965050505050505056fea2646970667358221220f2faa967236739094435c93888e2d88a6577c210012a5e8d59a2f9fd1e1fde0d64736f6c63430008090033",
  "linkReferences": {},
  "deployedLinkReferences": {}
}