{
  "_format": "hh-sol-artifact-1",
  "contractName": "Create",
  "sourceName": "contracts/VotingContract.sol",
  "abi": [
    {
      "inputs": [],
      "stateMutability": "nonpayable",
      "type": "constructor"
    },
    {
      "anonymous": false,
      "inputs": [
        {
          "indexed": true,
          "internalType": "uint256",
          "name": "candidateID",
          "type": "uint256"
        },
        {
          "indexed": false,
          "internalType": "string",
          "name": "age",
          "type": "string"
        },
        {
          "indexed": false,
          "internalType": "string",
          "name": "name",
          "type": "string"
        },
        {
          "indexed": false,
          "internalType": "string",
          "name": "image",
          "type": "string"
        },
        {
          "indexed": false,
          "internalType": "uint256",
          "name": "voteCount",
          "type": "uint256"
        },
        {
          "indexed": false,
          "internalType": "address",
          "name": "_address",
          "type": "address"
        },
        {
          "indexed": false,
          "internalType": "string",
          "name": "ipfs",
          "type": "string"
        }
      ],
      "name": "CandidateEvent",
      "type": "event"
    },
    {
      "anonymous": false,
      "inputs": [
        {
          "indexed": true,
          "internalType": "uint256",
          "name": "voter_voterID",
          "type": "uint256"
        },
        {
          "indexed": false,
          "internalType": "string",
          "name": "voter_name",
          "type": "string"
        },
        {
          "indexed": false,
          "internalType": "string",
          "name": "voter_image",
          "type": "string"
        },
        {
          "indexed": false,
          "internalType": "address",
          "name": "voter_address",
          "type": "address"
        },
        {
          "indexed": false,
          "internalType": "uint256",
          "name": "voter_allowed",
          "type": "uint256"
        },
        {
          "indexed": false,
          "internalType": "bool",
          "name": "voter_voted",
          "type": "bool"
        },
        {
          "indexed": false,
          "internalType": "uint256",
          "name": "voter_vote",
          "type": "uint256"
        },
        {
          "indexed": false,
          "internalType": "string",
          "name": "voter_ipfs",
          "type": "string"
        }
      ],
      "name": "VoterCreated",
      "type": "event"
    },
    {
      "inputs": [],
      "name": "_candidateID",
      "outputs": [
        {
          "internalType": "uint256",
          "name": "_value",
          "type": "uint256"
        }
      ],
      "stateMutability": "view",
      "type": "function"
    },
    {
      "inputs": [],
      "name": "_voterID",
      "outputs": [
        {
          "internalType": "uint256",
          "name": "_value",
          "type": "uint256"
        }
      ],
      "stateMutability": "view",
      "type": "function"
    },
    {
      "inputs": [
        {
          "internalType": "uint256",
          "name": "",
          "type": "uint256"
        }
      ],
      "name": "candidateAddress",
      "outputs": [
        {
          "internalType": "address",
          "name": "",
          "type": "address"
        }
      ],
      "stateMutability": "view",
      "type": "function"
    },
    {
      "inputs": [
        {
          "internalType": "address",
          "name": "",
          "type": "address"
        }
      ],
      "name": "candidates",
      "outputs": [
        {
          "internalType": "uint256",
          "name": "candidateID",
          "type": "uint256"
        },
        {
          "internalType": "string",
          "name": "age",
          "type": "string"
        },
        {
          "internalType": "string",
          "name": "name",
          "type": "string"
        },
        {
          "internalType": "string",
          "name": "image",
          "type": "string"
        },
        {
          "internalType": "uint256",
          "name": "voteCount",
          "type": "uint256"
        },
        {
          "internalType": "address",
          "name": "_address",
          "type": "address"
        },
        {
          "internalType": "string",
          "name": "ipfs",
          "type": "string"
        }
      ],
      "stateMutability": "view",
      "type": "function"
    },
    {
      "inputs": [],
      "name": "getCandidate",
      "outputs": [
        {
          "internalType": "address[]",
          "name": "",
          "type": "address[]"
        }
      ],
      "stateMutability": "view",
      "type": "function"
    },
    {
      "inputs": [],
      "name": "getCandidateLength",
      "outputs": [
        {
          "internalType": "uint256",
          "name": "",
          "type": "uint256"
        }
      ],
      "stateMutability": "view",
      "type": "function"
    },
    {
      "inputs": [
        {
          "internalType": "address",
          "name": "_address",
          "type": "address"
        }
      ],
      "name": "getCandidatedata",
      "outputs": [
        {
          "internalType": "string",
          "name": "",
          "type": "string"
        },
        {
          "internalType": "string",
          "name": "",
          "type": "string"
        },
        {
          "internalType": "uint256",
          "name": "",
          "type": "uint256"
        },
        {
          "internalType": "string",
          "name": "",
          "type": "string"
        },
        {
          "internalType": "uint256",
          "name": "",
          "type": "uint256"
        },
        {
          "internalType": "string",
          "name": "",
          "type": "string"
        },
        {
          "internalType": "address",
          "name": "",
          "type": "address"
        }
      ],
      "stateMutability": "view",
      "type": "function"
    },
    {
      "inputs": [],
      "name": "getVotedVoterList",
      "outputs": [
        {
          "internalType": "address[]",
          "name": "",
          "type": "address[]"
        }
      ],
      "stateMutability": "view",
      "type": "function"
    },
    {
      "inputs": [],
      "name": "getVoterLength",
      "outputs": [
        {
          "internalType": "uint256",
          "name": "",
          "type": "uint256"
        }
      ],
      "stateMutability": "view",
      "type": "function"
    },
    {
      "inputs": [],
      "name": "getVoterList",
      "outputs": [
        {
          "internalType": "address[]",
          "name": "",
          "type": "address[]"
        }
      ],
      "stateMutability": "view",
      "type": "function"
    },
    {
      "inputs": [
        {
          "internalType": "address",
          "name": "_address",
          "type": "address"
        }
      ],
      "name": "getVoterdata",
      "outputs": [
        {
          "internalType": "uint256",
          "name": "",
          "type": "uint256"
        },
        {
          "internalType": "string",
          "name": "",
          "type": "string"
        },
        {
          "internalType": "string",
          "name": "",
          "type": "string"
        },
        {
          "internalType": "address",
          "name": "",
          "type": "address"
        },
        {
          "internalType": "string",
          "name": "",
          "type": "string"
        },
        {
          "internalType": "uint256",
          "name": "",
          "type": "uint256"
        },
        {
          "internalType": "bool",
          "name": "",
          "type": "bool"
        }
      ],
      "stateMutability": "view",
      "type": "function"
    },
    {
      "inputs": [
        {
          "internalType": "address",
          "name": "_address",
          "type": "address"
        },
        {
          "internalType": "string",
          "name": "_age",
          "type": "string"
        },
        {
          "internalType": "string",
          "name": "_name",
          "type": "string"
        },
        {
          "internalType": "string",
          "name": "_image",
          "type": "string"
        },
        {
          "internalType": "string",
          "name": "_ipfs",
          "type": "string"
        }
      ],
      "name": "setCandidate",
      "outputs": [],
      "stateMutability": "nonpayable",
      "type": "function"
    },
    {
      "inputs": [
        {
          "internalType": "address",
          "name": "_candidateAddress",
          "type": "address"
        },
        {
          "internalType": "uint256",
          "name": "_candidateVoteId",
          "type": "uint256"
        }
      ],
      "name": "vote",
      "outputs": [],
      "stateMutability": "nonpayable",
      "type": "function"
    },
    {
      "inputs": [
        {
          "internalType": "uint256",
          "name": "",
          "type": "uint256"
        }
      ],
      "name": "votedVoters",
      "outputs": [
        {
          "internalType": "address",
          "name": "",
          "type": "address"
        }
      ],
      "stateMutability": "view",
      "type": "function"
    },
    {
      "inputs": [
        {
          "internalType": "uint256",
          "name": "",
          "type": "uint256"
        }
      ],
      "name": "voterAddress",
      "outputs": [
        {
          "internalType": "address",
          "name": "",
          "type": "address"
        }
      ],
      "stateMutability": "view",
      "type": "function"
    },
    {
      "inputs": [
        {
          "internalType": "address",
          "name": "_address",
          "type": "address"
        },
        {
          "internalType": "string",
          "name": "_name",
          "type": "string"
        },
        {
          "internalType": "string",
          "name": "_image",
          "type": "string"
        },
        {
          "internalType": "string",
          "name": "_ipfs",
          "type": "string"
        }
      ],
      "name": "voterRight",
      "outputs": [],
      "stateMutability": "nonpayable",
      "type": "function"
    },
    {
      "inputs": [
        {
          "internalType": "address",
          "name": "",
          "type": "address"
        }
      ],
      "name": "voters",
      "outputs": [
        {
          "internalType": "uint256",
          "name": "voter_voterID",
          "type": "uint256"
        },
        {
          "internalType": "string",
          "name": "voter_name",
          "type": "string"
        },
        {
          "internalType": "string",
          "name": "voter_image",
          "type": "string"
        },
        {
          "internalType": "address",
          "name": "voter_address",
          "type": "address"
        },
        {
          "internalType": "uint256",
          "name": "voter_allowed",
          "type": "uint256"
        },
        {
          "internalType": "bool",
          "name": "voter_voted",
          "type": "bool"
        },
        {
          "internalType": "uint256",
          "name": "voter_vote",
          "type": "uint256"
        },
        {
          "internalType": "string",
          "name": "voter_ipfs",
          "type": "string"
        }
      ],
      "stateMutability": "view",
      "type": "function"
    },
    {
      "inputs": [],
      "name": "votingOrganizer",
      "outputs": [
        {
          "internalType": "address",
          "name": "",
          "type": "address"
        }
      ],
      "stateMutability": "view",
      "type": "function"
    }
  ],
  "bytecode": "0x608060405234801561001057600080fd5b5033600260006101000a81548173ffffffffffffffffffffffffffffffffffffffff021916908373ffffffffffffffffffffffffffffffffffffffff160217905550612742806100616000396000f3fe608060405234801561001057600080fd5b50600436106101165760003560e01c80638ab66a90116100a2578063b404031311610071578063b404031314610304578063b63c82ca14610322578063c5036fd414610358578063c91ec7121461038e578063f7522a83146103aa57610116565b80638ab66a901461025b5780638e94568514610291578063a3ec138d146102af578063b28d92ae146102e657610116565b80635d55f2de116100e95780635d55f2de146101a35780635f74bbde146101d357806364f1832e146101ef57806370218b851461020d5780637831ffb31461022b57610116565b80630361419e1461011b57806305ad45a4146101375780633a88251a146101555780635cc48aa714610185575b600080fd5b61013560048036038101906101309190611c43565b6103c8565b005b61013f61068b565b60405161014c9190611d17565b60405180910390f35b61016f600480360381019061016a9190611d5e565b610698565b60405161017c9190611d9a565b60405180910390f35b61018d6106d7565b60405161019a9190611d9a565b60405180910390f35b6101bd60048036038101906101b89190611d5e565b6106fd565b6040516101ca9190611d9a565b60405180910390f35b6101ed60048036038101906101e89190611db5565b61073c565b005b6101f7610904565b6040516102049190611d17565b60405180910390f35b610215610910565b6040516102229190611eb3565b60405180910390f35b61024560048036038101906102409190611d5e565b61099e565b6040516102529190611d9a565b60405180910390f35b61027560048036038101906102709190611ed5565b6109dd565b6040516102889796959493929190611f8a565b60405180910390f35b610299610c5f565b6040516102a69190611eb3565b60405180910390f35b6102c960048036038101906102c49190611ed5565b610ced565b6040516102dd989796959493929190612030565b60405180910390f35b6102ee610efa565b6040516102fb9190611eb3565b60405180910390f35b61030c610f88565b6040516103199190611d17565b60405180910390f35b61033c60048036038101906103379190611ed5565b610f94565b60405161034f97969594939291906120c3565b60405180910390f35b610372600480360381019061036d9190611ed5565b6113db565b604051610385979695949392919061214e565b60405180910390f35b6103a860048036038101906103a391906121d2565b6117a3565b005b6103b26119b7565b6040516103bf9190611d17565b60405180910390f35b3373ffffffffffffffffffffffffffffffffffffffff16600260009054906101000a900473ffffffffffffffffffffffffffffffffffffffff1673ffffffffffffffffffffffffffffffffffffffff1614610458576040517f08c379a000000000000000000000000000000000000000000000000000000000815260040161044f9061232f565b60405180910390fd5b61046260006119c4565b600061046e60006119da565b90506000600560008773ffffffffffffffffffffffffffffffffffffffff1673ffffffffffffffffffffffffffffffffffffffff168152602001908152602001600020905060008160040154146104fa576040517f08c379a00000000000000000000000000000000000000000000000000000000081526004016104f19061239b565b60405180910390fd5b600181600401819055508481600101908051906020019061051c9291906119e8565b50838160020190805190602001906105359291906119e8565b50858160030160006101000a81548173ffffffffffffffffffffffffffffffffffffffff021916908373ffffffffffffffffffffffffffffffffffffffff1602179055508181600001819055506103e8816006018190555060008160050160006101000a81548160ff021916908315150217905550828160070190805190602001906105c29291906119e8565b506006869080600181540180825580915050600190039060005260206000200160009091909190916101000a81548173ffffffffffffffffffffffffffffffffffffffff021916908373ffffffffffffffffffffffffffffffffffffffff160217905550817ff5f39971dd62d9929e3a9feaa6bb77fe7c7da0001babff8a65a7e51ad0201c1986868985600401548660050160009054906101000a900460ff1687600601548a60405161067b97969594939291906123bb565b60405180910390a2505050505050565b6000600680549050905090565b600381815481106106a857600080fd5b906000526020600020016000915054906101000a900473ffffffffffffffffffffffffffffffffffffffff1681565b600260009054906101000a900473ffffffffffffffffffffffffffffffffffffffff1681565b6006818154811061070d57600080fd5b906000526020600020016000915054906101000a900473ffffffffffffffffffffffffffffffffffffffff1681565b6000600560003373ffffffffffffffffffffffffffffffffffffffff1673ffffffffffffffffffffffffffffffffffffffff16815260200190815260200160002090508060050160009054906101000a900460ff16156107d1576040517f08c379a00000000000000000000000000000000000000000000000000000000081526004016107c89061248b565b60405180910390fd5b600081600401541415610819576040517f08c379a0000000000000000000000000000000000000000000000000000000008152600401610810906124f7565b60405180910390fd5b60018160050160006101000a81548160ff0219169083151502179055508181600601819055506007339080600181540180825580915050600190039060005260206000200160009091909190916101000a81548173ffffffffffffffffffffffffffffffffffffffff021916908373ffffffffffffffffffffffffffffffffffffffff1602179055508060040154600460008573ffffffffffffffffffffffffffffffffffffffff1673ffffffffffffffffffffffffffffffffffffffff16815260200190815260200160002060040160008282546108f89190612546565b92505081905550505050565b60018060000154905081565b6060600380548060200260200160405190810160405280929190818152602001828054801561099457602002820191906000526020600020905b8160009054906101000a900473ffffffffffffffffffffffffffffffffffffffff1673ffffffffffffffffffffffffffffffffffffffff168152602001906001019080831161094a575b5050505050905090565b600781815481106109ae57600080fd5b906000526020600020016000915054906101000a900473ffffffffffffffffffffffffffffffffffffffff1681565b6004602052806000526040600020600091509050806000015490806001018054610a06906125cb565b80601f0160208091040260200160405190810160405280929190818152602001828054610a32906125cb565b8015610a7f5780601f10610a5457610100808354040283529160200191610a7f565b820191906000526020600020905b815481529060010190602001808311610a6257829003601f168201915b505050505090806002018054610a94906125cb565b80601f0160208091040260200160405190810160405280929190818152602001828054610ac0906125cb565b8015610b0d5780601f10610ae257610100808354040283529160200191610b0d565b820191906000526020600020905b815481529060010190602001808311610af057829003601f168201915b505050505090806003018054610b22906125cb565b80601f0160208091040260200160405190810160405280929190818152602001828054610b4e906125cb565b8015610b9b5780601f10610b7057610100808354040283529160200191610b9b565b820191906000526020600020905b815481529060010190602001808311610b7e57829003601f168201915b5050505050908060040154908060050160009054906101000a900473ffffffffffffffffffffffffffffffffffffffff1690806006018054610bdc906125cb565b80601f0160208091040260200160405190810160405280929190818152602001828054610c08906125cb565b8015610c555780601f10610c2a57610100808354040283529160200191610c55565b820191906000526020600020905b815481529060010190602001808311610c3857829003601f168201915b5050505050905087565b60606007805480602002602001604051908101604052809291908181526020018280548015610ce357602002820191906000526020600020905b8160009054906101000a900473ffffffffffffffffffffffffffffffffffffffff1673ffffffffffffffffffffffffffffffffffffffff1681526020019060010190808311610c99575b5050505050905090565b6005602052806000526040600020600091509050806000015490806001018054610d16906125cb565b80601f0160208091040260200160405190810160405280929190818152602001828054610d42906125cb565b8015610d8f5780601f10610d6457610100808354040283529160200191610d8f565b820191906000526020600020905b815481529060010190602001808311610d7257829003601f168201915b505050505090806002018054610da4906125cb565b80601f0160208091040260200160405190810160405280929190818152602001828054610dd0906125cb565b8015610e1d5780601f10610df257610100808354040283529160200191610e1d565b820191906000526020600020905b815481529060010190602001808311610e0057829003601f168201915b5050505050908060030160009054906101000a900473ffffffffffffffffffffffffffffffffffffffff16908060040154908060050160009054906101000a900460ff1690806006015490806007018054610e77906125cb565b80601f0160208091040260200160405190810160405280929190818152602001828054610ea3906125cb565b8015610ef05780601f10610ec557610100808354040283529160200191610ef0565b820191906000526020600020905b815481529060010190602001808311610ed357829003601f168201915b5050505050905088565b60606006805480602002602001604051908101604052809291908181526020018280548015610f7e57602002820191906000526020600020905b8160009054906101000a900473ffffffffffffffffffffffffffffffffffffffff1673ffffffffffffffffffffffffffffffffffffffff1681526020019060010190808311610f34575b5050505050905090565b60008060000154905081565b60608060006060600060606000600460008973ffffffffffffffffffffffffffffffffffffffff1673ffffffffffffffffffffffffffffffffffffffff168152602001908152602001600020600101600460008a73ffffffffffffffffffffffffffffffffffffffff1673ffffffffffffffffffffffffffffffffffffffff168152602001908152602001600020600201600460008b73ffffffffffffffffffffffffffffffffffffffff1673ffffffffffffffffffffffffffffffffffffffff16815260200190815260200160002060000154600460008c73ffffffffffffffffffffffffffffffffffffffff1673ffffffffffffffffffffffffffffffffffffffff168152602001908152602001600020600301600460008d73ffffffffffffffffffffffffffffffffffffffff1673ffffffffffffffffffffffffffffffffffffffff16815260200190815260200160002060040154600460008e73ffffffffffffffffffffffffffffffffffffffff1673ffffffffffffffffffffffffffffffffffffffff168152602001908152602001600020600601600460008f73ffffffffffffffffffffffffffffffffffffffff1673ffffffffffffffffffffffffffffffffffffffff16815260200190815260200160002060050160009054906101000a900473ffffffffffffffffffffffffffffffffffffffff1686805461119e906125cb565b80601f01602080910402602001604051908101604052809291908181526020018280546111ca906125cb565b80156112175780601f106111ec57610100808354040283529160200191611217565b820191906000526020600020905b8154815290600101906020018083116111fa57829003601f168201915b5050505050965085805461122a906125cb565b80601f0160208091040260200160405190810160405280929190818152602001828054611256906125cb565b80156112a35780601f10611278576101008083540402835291602001916112a3565b820191906000526020600020905b81548152906001019060200180831161128657829003601f168201915b505050505095508380546112b6906125cb565b80601f01602080910402602001604051908101604052809291908181526020018280546112e2906125cb565b801561132f5780601f106113045761010080835404028352916020019161132f565b820191906000526020600020905b81548152906001019060200180831161131257829003601f168201915b50505050509350818054611342906125cb565b80601f016020809104026020016040519081016040528092919081815260200182805461136e906125cb565b80156113bb5780601f10611390576101008083540402835291602001916113bb565b820191906000526020600020905b81548152906001019060200180831161139e57829003601f168201915b505050505091509650965096509650965096509650919395979092949650565b600060608060006060600080600560008973ffffffffffffffffffffffffffffffffffffffff1673ffffffffffffffffffffffffffffffffffffffff16815260200190815260200160002060000154600560008a73ffffffffffffffffffffffffffffffffffffffff1673ffffffffffffffffffffffffffffffffffffffff168152602001908152602001600020600101600560008b73ffffffffffffffffffffffffffffffffffffffff1673ffffffffffffffffffffffffffffffffffffffff168152602001908152602001600020600201600560008c73ffffffffffffffffffffffffffffffffffffffff1673ffffffffffffffffffffffffffffffffffffffff16815260200190815260200160002060030160009054906101000a900473ffffffffffffffffffffffffffffffffffffffff16600560008d73ffffffffffffffffffffffffffffffffffffffff1673ffffffffffffffffffffffffffffffffffffffff168152602001908152602001600020600701600560008e73ffffffffffffffffffffffffffffffffffffffff1673ffffffffffffffffffffffffffffffffffffffff16815260200190815260200160002060040154600560008f73ffffffffffffffffffffffffffffffffffffffff1673ffffffffffffffffffffffffffffffffffffffff16815260200190815260200160002060050160009054906101000a900460ff168580546115f2906125cb565b80601f016020809104026020016040519081016040528092919081815260200182805461161e906125cb565b801561166b5780601f106116405761010080835404028352916020019161166b565b820191906000526020600020905b81548152906001019060200180831161164e57829003601f168201915b5050505050955084805461167e906125cb565b80601f01602080910402602001604051908101604052809291908181526020018280546116aa906125cb565b80156116f75780601f106116cc576101008083540402835291602001916116f7565b820191906000526020600020905b8154815290600101906020018083116116da57829003601f168201915b5050505050945082805461170a906125cb565b80601f0160208091040260200160405190810160405280929190818152602001828054611736906125cb565b80156117835780601f1061175857610100808354040283529160200191611783565b820191906000526020600020905b81548152906001019060200180831161176657829003601f168201915b505050505092509650965096509650965096509650919395979092949650565b3373ffffffffffffffffffffffffffffffffffffffff16600260009054906101000a900473ffffffffffffffffffffffffffffffffffffffff1673ffffffffffffffffffffffffffffffffffffffff1614611833576040517f08c379a000000000000000000000000000000000000000000000000000000000815260040161182a9061266f565b60405180910390fd5b61183d60016119c4565b600061184960016119da565b90506000600460008873ffffffffffffffffffffffffffffffffffffffff1673ffffffffffffffffffffffffffffffffffffffff1681526020019081526020016000209050858160010190805190602001906118a69291906119e8565b50848160020190805190602001906118bf9291906119e8565b50818160000181905550838160030190805190602001906118e19291906119e8565b5060008160040181905550828160060190805190602001906119049291906119e8565b506003879080600181540180825580915050600190039060005260206000200160009091909190916101000a81548173ffffffffffffffffffffffffffffffffffffffff021916908373ffffffffffffffffffffffffffffffffffffffff160217905550817f77ac25f44e0fef43a1507ec81a076f9486c5b8240e8ad7aac0359f124342b42587878785600401548c896040516119a69695949392919061268f565b60405180910390a250505050505050565b6000600380549050905090565b6001816000016000828254019250508190555050565b600081600001549050919050565b8280546119f4906125cb565b90600052602060002090601f016020900481019282611a165760008555611a5d565b82601f10611a2f57805160ff1916838001178555611a5d565b82800160010185558215611a5d579182015b82811115611a5c578251825591602001919060010190611a41565b5b509050611a6a9190611a6e565b5090565b5b80821115611a87576000816000905550600101611a6f565b5090565b6000604051905090565b600080fd5b600080fd5b600073ffffffffffffffffffffffffffffffffffffffff82169050919050565b6000611aca82611a9f565b9050919050565b611ada81611abf565b8114611ae557600080fd5b50565b600081359050611af781611ad1565b92915050565b600080fd5b600080fd5b6000601f19601f8301169050919050565b7f4e487b7100000000000000000000000000000000000000000000000000000000600052604160045260246000fd5b611b5082611b07565b810181811067ffffffffffffffff82111715611b6f57611b6e611b18565b5b80604052505050565b6000611b82611a8b565b9050611b8e8282611b47565b919050565b600067ffffffffffffffff821115611bae57611bad611b18565b5b611bb782611b07565b9050602081019050919050565b82818337600083830152505050565b6000611be6611be184611b93565b611b78565b905082815260208101848484011115611c0257611c01611b02565b5b611c0d848285611bc4565b509392505050565b600082601f830112611c2a57611c29611afd565b5b8135611c3a848260208601611bd3565b91505092915050565b60008060008060808587031215611c5d57611c5c611a95565b5b6000611c6b87828801611ae8565b945050602085013567ffffffffffffffff811115611c8c57611c8b611a9a565b5b611c9887828801611c15565b935050604085013567ffffffffffffffff811115611cb957611cb8611a9a565b5b611cc587828801611c15565b925050606085013567ffffffffffffffff811115611ce657611ce5611a9a565b5b611cf287828801611c15565b91505092959194509250565b6000819050919050565b611d1181611cfe565b82525050565b6000602082019050611d2c6000830184611d08565b92915050565b611d3b81611cfe565b8114611d4657600080fd5b50565b600081359050611d5881611d32565b92915050565b600060208284031215611d7457611d73611a95565b5b6000611d8284828501611d49565b91505092915050565b611d9481611abf565b82525050565b6000602082019050611daf6000830184611d8b565b92915050565b60008060408385031215611dcc57611dcb611a95565b5b6000611dda85828601611ae8565b9250506020611deb85828601611d49565b9150509250929050565b600081519050919050565b600082825260208201905092915050565b6000819050602082019050919050565b611e2a81611abf565b82525050565b6000611e3c8383611e21565b60208301905092915050565b6000602082019050919050565b6000611e6082611df5565b611e6a8185611e00565b9350611e7583611e11565b8060005b83811015611ea6578151611e8d8882611e30565b9750611e9883611e48565b925050600181019050611e79565b5085935050505092915050565b60006020820190508181036000830152611ecd8184611e55565b905092915050565b600060208284031215611eeb57611eea611a95565b5b6000611ef984828501611ae8565b91505092915050565b600081519050919050565b600082825260208201905092915050565b60005b83811015611f3c578082015181840152602081019050611f21565b83811115611f4b576000848401525b50505050565b6000611f5c82611f02565b611f668185611f0d565b9350611f76818560208601611f1e565b611f7f81611b07565b840191505092915050565b600060e082019050611f9f600083018a611d08565b8181036020830152611fb18189611f51565b90508181036040830152611fc58188611f51565b90508181036060830152611fd98187611f51565b9050611fe86080830186611d08565b611ff560a0830185611d8b565b81810360c08301526120078184611f51565b905098975050505050505050565b60008115159050919050565b61202a81612015565b82525050565b600061010082019050612046600083018b611d08565b8181036020830152612058818a611f51565b9050818103604083015261206c8189611f51565b905061207b6060830188611d8b565b6120886080830187611d08565b61209560a0830186612021565b6120a260c0830185611d08565b81810360e08301526120b48184611f51565b90509998505050505050505050565b600060e08201905081810360008301526120dd818a611f51565b905081810360208301526120f18189611f51565b90506121006040830188611d08565b81810360608301526121128187611f51565b90506121216080830186611d08565b81810360a08301526121338185611f51565b905061214260c0830184611d8b565b98975050505050505050565b600060e082019050612163600083018a611d08565b81810360208301526121758189611f51565b905081810360408301526121898188611f51565b90506121986060830187611d8b565b81810360808301526121aa8186611f51565b90506121b960a0830185611d08565b6121c660c0830184612021565b98975050505050505050565b600080600080600060a086880312156121ee576121ed611a95565b5b60006121fc88828901611ae8565b955050602086013567ffffffffffffffff81111561221d5761221c611a9a565b5b61222988828901611c15565b945050604086013567ffffffffffffffff81111561224a57612249611a9a565b5b61225688828901611c15565b935050606086013567ffffffffffffffff81111561227757612276611a9a565b5b61228388828901611c15565b925050608086013567ffffffffffffffff8111156122a4576122a3611a9a565b5b6122b088828901611c15565b9150509295509295909350565b7f4f6e6c79206f7267616e697a65722063616e2063726561746520766f7465722060008201527f6e6f7420796f7500000000000000000000000000000000000000000000000000602082015250565b6000612319602783611f0d565b9150612324826122bd565b604082019050919050565b600060208201905081810360008301526123488161230c565b9050919050565b7f566f74657220616c726561647920616c6c6f7765640000000000000000000000600082015250565b6000612385601583611f0d565b91506123908261234f565b602082019050919050565b600060208201905081810360008301526123b481612378565b9050919050565b600060e08201905081810360008301526123d5818a611f51565b905081810360208301526123e98189611f51565b90506123f86040830188611d8b565b6124056060830187611d08565b6124126080830186612021565b61241f60a0830185611d08565b81810360c08301526124318184611f51565b905098975050505050505050565b7f596f75206861766520616c726561647920766f74656400000000000000000000600082015250565b6000612475601683611f0d565b91506124808261243f565b602082019050919050565b600060208201905081810360008301526124a481612468565b9050919050565b7f596f752068617665206e6f2072696768747320746f20766f7465000000000000600082015250565b60006124e1601a83611f0d565b91506124ec826124ab565b602082019050919050565b60006020820190508181036000830152612510816124d4565b9050919050565b7f4e487b7100000000000000000000000000000000000000000000000000000000600052601160045260246000fd5b600061255182611cfe565b915061255c83611cfe565b9250827fffffffffffffffffffffffffffffffffffffffffffffffffffffffffffffffff0382111561259157612590612517565b5b828201905092915050565b7f4e487b7100000000000000000000000000000000000000000000000000000000600052602260045260246000fd5b600060028204905060018216806125e357607f821691505b602082108114156125f7576125f661259c565b5b50919050565b7f4f6e6c79204f7267616e697a65722063616e206372656174652043616e64696460008201527f6174650000000000000000000000000000000000000000000000000000000000602082015250565b6000612659602383611f0d565b9150612664826125fd565b604082019050919050565b600060208201905081810360008301526126888161264c565b9050919050565b600060c08201905081810360008301526126a98189611f51565b905081810360208301526126bd8188611f51565b905081810360408301526126d18187611f51565b90506126e06060830186611d08565b6126ed6080830185611d8b565b81810360a08301526126ff8184611f51565b905097965050505050505056fea2646970667358221220cc059cf35673663fe7d7c66c8468a79e5c6eefe14c78801b87339e1ebbec8b3d64736f6c63430008090033",
  "linkReferences": {},
  "deployedLinkReferences": {}
}